{"abi":[{"type":"constructor","inputs":[{"name":"_lending","type":"address","internalType":"address"},{"name":"_cornDEX","type":"address","internalType":"address"},{"name":"_corn","type":"address","internalType":"address"}],"stateMutability":"nonpayable"},{"type":"receive","stateMutability":"payable"},{"type":"function","name":"executeOperation","inputs":[{"name":"amount","type":"uint256","internalType":"uint256"},{"name":"initiator","type":"address","internalType":"address"},{"name":"toLiquidate","type":"address","internalType":"address"}],"outputs":[{"name":"","type":"bool","internalType":"bool"}],"stateMutability":"nonpayable"}],"bytecode":{"object":"0x608060405234801561000f575f80fd5b506040516105d73803806105d783398101604081905261002e9161008a565b5f80546001600160a01b039485166001600160a01b0319918216179091556001805493851693821693909317909255600280549190931691161790556100ca565b80516001600160a01b0381168114610085575f80fd5b919050565b5f805f6060848603121561009c575f80fd5b6100a58461006f565b92506100b36020850161006f565b91506100c16040850161006f565b90509250925092565b610500806100d75f395ff3fe608060405260043610610020575f3560e01c8063a85c7aa61461002b575f80fd5b3661002757005b5f80fd5b348015610036575f80fd5b5061004a610045366004610454565b61005e565b604051901515815260200160405180910390f35b6002545f805460405163095ea7b360e01b81526001600160a01b039182166004820152602481018790529192169063095ea7b3906044016020604051808303815f875af11580156100b1573d5f803e3d5ffd5b505050506040513d601f19601f820116820180604052508101906100d5919061048d565b505f546040516305f0caad60e31b81526001600160a01b03848116600483015290911690632f865568906024015f604051808303815f87803b158015610119575f80fd5b505af115801561012b573d5f803e3d5ffd5b50506001546002546040516370a0823160e01b81526001600160a01b03928316600482018190523194505f93509116906370a0823190602401602060405180830381865afa15801561017f573d5f803e3d5ffd5b505050506040513d601f19601f820116820180604052508101906101a391906104b3565b600154604051636e97f13960e01b81526004810189905260248101859052604481018390529192505f916001600160a01b0390911690636e97f13990606401602060405180830381865afa1580156101fd573d5f803e3d5ffd5b505050506040513d601f19601f8201168201806040525081019061022191906104b3565b600154604051634a5c8c6f60e11b8152600481018390529192506001600160a01b0316906394b918de90839060240160206040518083038185885af115801561026c573d5f803e3d5ffd5b50505050506040513d601f19601f8201168201806040525081019061029191906104b3565b506002545f546040516370a0823160e01b81523060048201526001600160a01b039283169263a9059cbb92169083906370a0823190602401602060405180830381865afa1580156102e4573d5f803e3d5ffd5b505050506040513d601f19601f8201168201806040525081019061030891906104b3565b6040516001600160e01b031960e085901b1681526001600160a01b03909216600483015260248201526044016020604051808303815f875af1158015610350573d5f803e3d5ffd5b505050506040513d601f19601f82011682018060405250810190610374919061048d565b50471561042c575f866001600160a01b0316476040515f6040518083038185875af1925050503d805f81146103c4576040519150601f19603f3d011682016040523d82523d5f602084013e6103c9565b606091505b505090508061042a5760405162461bcd60e51b8152602060048201526024808201527f4661696c656420746f2073656e6420455448206261636b20746f20696e69746960448201526330ba37b960e11b606482015260840160405180910390fd5b505b5060019695505050505050565b80356001600160a01b038116811461044f575f80fd5b919050565b5f805f60608486031215610466575f80fd5b8335925061047660208501610439565b915061048460408501610439565b90509250925092565b5f6020828403121561049d575f80fd5b815180151581146104ac575f80fd5b9392505050565b5f602082840312156104c3575f80fd5b505191905056fea264697066735822122080fef04ed1b462863ed601d346fd782f1824f3ffe85aa6eae82c8e0f4ead5f5064736f6c63430008140033","linkReferences":{}},"methodIdentifiers":{"executeOperation(uint256,address,address)":"a85c7aa6"},"id":2}