{"abi":[{"type":"constructor","inputs":[{"name":"_cornDex","type":"address","internalType":"address"},{"name":"_cornToken","type":"address","internalType":"address"},{"name":"_lending","type":"address","internalType":"address"}],"stateMutability":"nonpayable"},{"type":"fallback","stateMutability":"payable"},{"type":"receive","stateMutability":"payable"},{"type":"function","name":"movePrice","inputs":[{"name":"size","type":"int256","internalType":"int256"}],"outputs":[],"stateMutability":"nonpayable"},{"type":"function","name":"movePriceAndUpdateRisk","inputs":[{"name":"size","type":"int256","internalType":"int256"},{"name":"user","type":"address","internalType":"address"}],"outputs":[],"stateMutability":"nonpayable"}],"bytecode":{"object":"0x608060405234801561000f575f80fd5b506040516103e73803806103e783398101604081905261002e916100e9565b5f80546001600160a01b03199081166001600160a01b03868116918217909355600180549092168484161790915560405163095ea7b360e01b815260048101919091525f1960248201529083169063095ea7b3906044016020604051808303815f875af11580156100a1573d5f803e3d5ffd5b505050506040513d601f19601f820116820180604052508101906100c59190610129565b5050505061014f565b80516001600160a01b03811681146100e4575f80fd5b919050565b5f805f606084860312156100fb575f80fd5b610104846100ce565b9250610112602085016100ce565b9150610120604085016100ce565b90509250925092565b5f60208284031215610139575f80fd5b81518015158114610148575f80fd5b9392505050565b61028b8061015c5f395ff3fe608060405260043610610029575f3560e01c806353dabb4f14610032578063d226b4ed1461005157005b3661003057005b005b34801561003d575f80fd5b5061003061004c3660046101c8565b610070565b34801561005c575f80fd5b5061003061006b366004610201565b6100d7565b610079826100d7565b60015460405163aeb465a960e01b81526001600160a01b0383811660048301529091169063aeb465a9906024015f604051808303815f87803b1580156100bd575f80fd5b505af11580156100cf573d5f803e3d5ffd5b505050505050565b5f811315610151575f54604051634a5c8c6f60e11b8152600481018390526001600160a01b03909116906394b918de90839060240160206040518083038185885af1158015610128573d5f803e3d5ffd5b50505050506040513d601f19601f8201168201806040525081019061014d9190610218565b5050565b5f546001600160a01b03166394b918de61016a8361022f565b6040518263ffffffff1660e01b815260040161018891815260200190565b6020604051808303815f875af11580156101a4573d5f803e3d5ffd5b505050506040513d601f19601f8201168201806040525081019061014d9190610218565b5f80604083850312156101d9575f80fd5b8235915060208301356001600160a01b03811681146101f6575f80fd5b809150509250929050565b5f60208284031215610211575f80fd5b5035919050565b5f60208284031215610228575f80fd5b5051919050565b5f600160ff1b820161024f57634e487b7160e01b5f52601160045260245ffd5b505f039056fea2646970667358221220f48a2029d840960bd57054153150aa0124039b1c9b358f236b92fc21d1eed6c164736f6c63430008140033","linkReferences":{}},"methodIdentifiers":{"movePrice(int256)":"d226b4ed","movePriceAndUpdateRisk(int256,address)":"53dabb4f"},"id":4}