{"abi":[{"type":"constructor","inputs":[{"name":"tokenAddr","type":"address","internalType":"address"}],"stateMutability":"nonpayable"},{"type":"function","name":"calculateXInput","inputs":[{"name":"yOutput","type":"uint256","internalType":"uint256"},{"name":"xReserves","type":"uint256","internalType":"uint256"},{"name":"yReserves","type":"uint256","internalType":"uint256"}],"outputs":[{"name":"xInput","type":"uint256","internalType":"uint256"}],"stateMutability":"pure"},{"type":"function","name":"currentPrice","inputs":[],"outputs":[{"name":"_currentPrice","type":"uint256","internalType":"uint256"}],"stateMutability":"view"},{"type":"function","name":"deposit","inputs":[],"outputs":[{"name":"tokensDeposited","type":"uint256","internalType":"uint256"}],"stateMutability":"payable"},{"type":"function","name":"init","inputs":[{"name":"tokens","type":"uint256","internalType":"uint256"}],"outputs":[{"name":"","type":"uint256","internalType":"uint256"}],"stateMutability":"payable"},{"type":"function","name":"liquidity","inputs":[{"name":"","type":"address","internalType":"address"}],"outputs":[{"name":"","type":"uint256","internalType":"uint256"}],"stateMutability":"view"},{"type":"function","name":"price","inputs":[{"name":"xInput","type":"uint256","internalType":"uint256"},{"name":"xReserves","type":"uint256","internalType":"uint256"},{"name":"yReserves","type":"uint256","internalType":"uint256"}],"outputs":[{"name":"yOutput","type":"uint256","internalType":"uint256"}],"stateMutability":"pure"},{"type":"function","name":"swap","inputs":[{"name":"inputAmount","type":"uint256","internalType":"uint256"}],"outputs":[{"name":"outputAmount","type":"uint256","internalType":"uint256"}],"stateMutability":"payable"},{"type":"function","name":"totalLiquidity","inputs":[],"outputs":[{"name":"","type":"uint256","internalType":"uint256"}],"stateMutability":"view"},{"type":"function","name":"withdraw","inputs":[{"name":"amount","type":"uint256","internalType":"uint256"}],"outputs":[{"name":"ethAmount","type":"uint256","internalType":"uint256"},{"name":"tokenAmount","type":"uint256","internalType":"uint256"}],"stateMutability":"nonpayable"},{"type":"event","name":"LiquidityProvided","inputs":[{"name":"liquidityProvider","type":"address","indexed":false,"internalType":"address"},{"name":"liquidityMinted","type":"uint256","indexed":false,"internalType":"uint256"},{"name":"ethInput","type":"uint256","indexed":false,"internalType":"uint256"},{"name":"tokensInput","type":"uint256","indexed":false,"internalType":"uint256"}],"anonymous":false},{"type":"event","name":"LiquidityRemoved","inputs":[{"name":"liquidityRemover","type":"address","indexed":false,"internalType":"address"},{"name":"liquidityWithdrawn","type":"uint256","indexed":false,"internalType":"uint256"},{"name":"tokensOutput","type":"uint256","indexed":false,"internalType":"uint256"},{"name":"ethOutput","type":"uint256","indexed":false,"internalType":"uint256"}],"anonymous":false},{"type":"event","name":"PriceUpdated","inputs":[{"name":"price","type":"uint256","indexed":false,"internalType":"uint256"}],"anonymous":false},{"type":"event","name":"Swap","inputs":[{"name":"swapper","type":"address","indexed":false,"internalType":"address"},{"name":"inputToken","type":"address","indexed":false,"internalType":"address"},{"name":"inputAmount","type":"uint256","indexed":false,"internalType":"uint256"},{"name":"outputToken","type":"address","indexed":false,"internalType":"address"},{"name":"outputAmount","type":"uint256","indexed":false,"internalType":"uint256"}],"anonymous":false}],"bytecode":{"object":"0x608060405234801561000f575f80fd5b5060405161125138038061125183398101604081905261002e91610052565b5f80546001600160a01b0319166001600160a01b039290921691909117905561007f565b5f60208284031215610062575f80fd5b81516001600160a01b0381168114610078575f80fd5b9392505050565b6111c58061008c5f395ff3fe608060405260043610610084575f3560e01c806394b918de1161005757806394b918de146101225780639d1b464a14610135578063b7b0422d14610149578063b8c876b11461015c578063d0e30db014610187575f80fd5b806315770f92146100885780632071a9f4146100b05780632e1a7d4d146100cf5780636e97f13914610103575b5f80fd5b348015610093575f80fd5b5061009d60015481565b6040519081526020015b60405180910390f35b3480156100bb575f80fd5b5061009d6100ca366004611076565b61018f565b3480156100da575f80fd5b506100ee6100e936600461109f565b6101be565b604080519283526020830191909152016100a7565b34801561010e575f80fd5b5061009d61011d366004611076565b6104a3565b61009d61013036600461109f565b6104d3565b348015610140575f80fd5b5061009d610541565b61009d61015736600461109f565b6105be565b348015610167575f80fd5b5061009d6101763660046110b6565b60026020525f908152604090205481565b61009d61070c565b5f8061019b83866110f7565b90505f6101a88686611114565b90506101b48183611127565b9695505050505050565b335f9081526002602052604081205481908311156102495760405162461bcd60e51b815260206004820152603c60248201527f77697468647261773a2073656e64657220646f6573206e6f742068617665206560448201527f6e6f756768206c697175696469747920746f2077697468647261772e0000000060648201526084015b60405180910390fd5b5f80546040516370a0823160e01b81523060048201524792916001600160a01b0316906370a0823190602401602060405180830381865afa158015610290573d5f803e3d5ffd5b505050506040513d601f19601f820116820180604052508101906102b49190611146565b90505f60015483876102c691906110f7565b6102d09190611127565b6001549091506102e083886110f7565b6102ea9190611127565b335f9081526002602052604081208054929650889290919061030d90849061115d565b925050819055508560015f828254610325919061115d565b90915550506040515f90339083908381818185875af1925050503d805f8114610369576040519150601f19603f3d011682016040523d82523d5f602084013e61036e565b606091505b50509050806103d65760405162461bcd60e51b815260206004820152602e60248201527f776974686472617728293a2072657665727420696e207472616e73666572726960448201526d6e672065746820746f20796f752160901b6064820152608401610240565b5f5460405163a9059cbb60e01b8152336004820152602481018790526001600160a01b039091169063a9059cbb906044016020604051808303815f875af1158015610423573d5f803e3d5ffd5b505050506040513d601f19601f820116820180604052508101906104479190611170565b61044f575f80fd5b6040805133815260208101899052908101869052606081018390527f1dc8bb69df2b8e91fbdcbfcf93d951b3f0000f085a95fe3f7946d6161439245d9060800160405180910390a181955050505050915091565b5f806104af84866110f7565b90505f6104bc868561115d565b90506104c88183611127565b6101b4906001611114565b5f80341180156104e257503482145b156104f6576104ef610a92565b9050610502565b6104ff82610c79565b90505b7f66cbca4f3c64fecf1dcb9ce094abcf7f68c3450a1d4e3a8e917dd621edb4ebe061052b610541565b60405190815260200160405180910390a1919050565b5f80546040516370a0823160e01b81523060048201526105b991670de0b6b3a76400009147916001600160a01b0316906370a0823190602401602060405180830381865afa158015610595573d5f803e3d5ffd5b505050506040513d601f19601f820116820180604052508101906100ca9190611146565b905090565b5f6001545f1461061a5760405162461bcd60e51b815260206004820152602160248201527f4445583a20696e6974202d20616c726561647920686173206c697175696469746044820152607960f81b6064820152608401610240565b476001819055335f81815260026020526040808220939093555491516323b872dd60e01b81526004810191909152306024820152604481018490526001600160a01b03909116906323b872dd906064016020604051808303815f875af1158015610686573d5f803e3d5ffd5b505050506040513d601f19601f820116820180604052508101906106aa9190611170565b6107045760405162461bcd60e51b815260206004820152602560248201527f4445583a20696e6974202d207472616e7366657220646964206e6f74207472616044820152641b9cd858dd60da1b6064820152608401610240565b505060015490565b5f80341161075c5760405162461bcd60e51b815260206004820152601f60248201527f4d7573742073656e642076616c7565207768656e206465706f736974696e67006044820152606401610240565b5f610767344761115d565b5f80546040516370a0823160e01b815230600482015292935090916001600160a01b03909116906370a0823190602401602060405180830381865afa1580156107b2573d5f803e3d5ffd5b505050506040513d601f19601f820116820180604052508101906107d69190611146565b90505f826107e483346110f7565b6107ee9190611127565b6107f9906001611114565b5f546040516370a0823160e01b815233600482015291925082916001600160a01b03909116906370a0823190602401602060405180830381865afa158015610843573d5f803e3d5ffd5b505050506040513d601f19601f820116820180604052508101906108679190611146565b10156108b55760405162461bcd60e51b815260206004820152601a60248201527f696e73756666696369656e7420746f6b656e2062616c616e63650000000000006044820152606401610240565b5f54604051636eb1769f60e11b815233600482015230602482015282916001600160a01b03169063dd62ed3e90604401602060405180830381865afa158015610900573d5f803e3d5ffd5b505050506040513d601f19601f820116820180604052508101906109249190611146565b101561096b5760405162461bcd60e51b8152602060048201526016602482015275696e73756666696369656e7420616c6c6f77616e636560501b6044820152606401610240565b5f836001543461097b91906110f7565b6109859190611127565b335f908152600260205260408120805492935083929091906109a8908490611114565b925050819055508060015f8282546109c09190611114565b90915550505f546040516323b872dd60e01b8152336004820152306024820152604481018490526001600160a01b03909116906323b872dd906064016020604051808303815f875af1158015610a18573d5f803e3d5ffd5b505050506040513d601f19601f82011682018060405250810190610a3c9190611170565b610a44575f80fd5b604080513381526020810183905234818301526060810184905290517f3bca7014f4c0ccc8016338c79f4c00e82068dbadaf4f01ca5449040fdd39f5009181900360800190a1509392505050565b5f803411610ad65760405162461bcd60e51b81526020600482015260116024820152700c6c2dcdcdee840e6eec2e04060408aa89607b1b6044820152606401610240565b5f610ae1344761115d565b5f80546040516370a0823160e01b815230600482015292935090916001600160a01b03909116906370a0823190602401602060405180830381865afa158015610b2c573d5f803e3d5ffd5b505050506040513d601f19601f82011682018060405250810190610b509190611146565b9050610b5d34838361018f565b5f5460405163a9059cbb60e01b8152336004820152602481018390529194506001600160a01b03169063a9059cbb906044016020604051808303815f875af1158015610bab573d5f803e3d5ffd5b505050506040513d601f19601f82011682018060405250810190610bcf9190611170565b610c1b5760405162461bcd60e51b815260206004820152601c60248201527f657468546f546f6b656e28293a20726576657274656420737761702e000000006044820152606401610240565b5f805460408051338152602081019390935234908301526001600160a01b03166060820152608081018490527f5380cf97d8f645d3c4896da60c053458dca03a3a31cec642ac80e1ddf0d8d02a9060a00160405180910390a1505090565b5f808211610cc05760405162461bcd60e51b815260206004820152601460248201527363616e6e6f742073776170203020746f6b656e7360601b6044820152606401610240565b5f546040516370a0823160e01b815233600482015283916001600160a01b0316906370a0823190602401602060405180830381865afa158015610d05573d5f803e3d5ffd5b505050506040513d601f19601f82011682018060405250810190610d299190611146565b1015610d775760405162461bcd60e51b815260206004820152601a60248201527f696e73756666696369656e7420746f6b656e2062616c616e63650000000000006044820152606401610240565b5f54604051636eb1769f60e11b815233600482015230602482015283916001600160a01b03169063dd62ed3e90604401602060405180830381865afa158015610dc2573d5f803e3d5ffd5b505050506040513d601f19601f82011682018060405250810190610de69190611146565b1015610e2d5760405162461bcd60e51b8152602060048201526016602482015275696e73756666696369656e7420616c6c6f77616e636560501b6044820152606401610240565b5f80546040516370a0823160e01b81523060048201526001600160a01b03909116906370a0823190602401602060405180830381865afa158015610e73573d5f803e3d5ffd5b505050506040513d601f19601f82011682018060405250810190610e979190611146565b9050610ea483824761018f565b5f546040516323b872dd60e01b8152336004820152306024820152604481018690529193506001600160a01b0316906323b872dd906064016020604051808303815f875af1158015610ef8573d5f803e3d5ffd5b505050506040513d601f19601f82011682018060405250810190610f1c9190611170565b610f685760405162461bcd60e51b815260206004820152601c60248201527f746f6b656e546f45746828293a20726576657274656420737761702e000000006044820152606401610240565b6040515f90339084908381818185875af1925050503d805f8114610fa7576040519150601f19603f3d011682016040523d82523d5f602084013e610fac565b606091505b50509050806110145760405162461bcd60e51b815260206004820152602e60248201527f746f6b656e546f4574683a2072657665727420696e207472616e73666572726960448201526d6e672065746820746f20796f752160901b6064820152608401610240565b5f8054604080513381526001600160a01b03909216602083015281018690526060810191909152608081018490527f5380cf97d8f645d3c4896da60c053458dca03a3a31cec642ac80e1ddf0d8d02a9060a00160405180910390a15050919050565b5f805f60608486031215611088575f80fd5b505081359360208301359350604090920135919050565b5f602082840312156110af575f80fd5b5035919050565b5f602082840312156110c6575f80fd5b81356001600160a01b03811681146110dc575f80fd5b9392505050565b634e487b7160e01b5f52601160045260245ffd5b808202811582820484141761110e5761110e6110e3565b92915050565b8082018082111561110e5761110e6110e3565b5f8261114157634e487b7160e01b5f52601260045260245ffd5b500490565b5f60208284031215611156575f80fd5b5051919050565b8181038181111561110e5761110e6110e3565b5f60208284031215611180575f80fd5b815180151581146110dc575f80fdfea264697066735822122071a87cd68ded5169c87a6cc1f8cd2d984b63ff33cdc6125ff5d979a5e32d287564736f6c63430008140033","linkReferences":{}},"methodIdentifiers":{"calculateXInput(uint256,uint256,uint256)":"6e97f139","currentPrice()":"9d1b464a","deposit()":"d0e30db0","init(uint256)":"b7b0422d","liquidity(address)":"b8c876b1","price(uint256,uint256,uint256)":"2071a9f4","swap(uint256)":"94b918de","totalLiquidity()":"15770f92","withdraw(uint256)":"2e1a7d4d"},"id":1}