{"abi":[{"type":"constructor","inputs":[{"name":"_cornDEX","type":"address","internalType":"address"},{"name":"_corn","type":"address","internalType":"address"}],"stateMutability":"nonpayable"},{"type":"function","name":"addCollateral","inputs":[],"outputs":[],"stateMutability":"payable"},{"type":"function","name":"borrowCorn","inputs":[{"name":"borrowAmount","type":"uint256","internalType":"uint256"}],"outputs":[],"stateMutability":"nonpayable"},{"type":"function","name":"calculateCollateralValue","inputs":[{"name":"user","type":"address","internalType":"address"}],"outputs":[{"name":"","type":"uint256","internalType":"uint256"}],"stateMutability":"view"},{"type":"function","name":"flashLoan","inputs":[{"name":"_recipient","type":"address","internalType":"contract IFlashLoanRecipient"},{"name":"_amount","type":"uint256","internalType":"uint256"},{"name":"_extraParam","type":"address","internalType":"address"}],"outputs":[],"stateMutability":"nonpayable"},{"type":"function","name":"getHealthFactor","inputs":[{"name":"user","type":"address","internalType":"address"}],"outputs":[{"name":"","type":"uint256","internalType":"uint256"}],"stateMutability":"view"},{"type":"function","name":"getMaxBorrowAmount","inputs":[{"name":"ethCollateralAmount","type":"uint256","internalType":"uint256"}],"outputs":[{"name":"","type":"uint256","internalType":"uint256"}],"stateMutability":"view"},{"type":"function","name":"getMaxWithdrawableCollateral","inputs":[{"name":"user","type":"address","internalType":"address"}],"outputs":[{"name":"","type":"uint256","internalType":"uint256"}],"stateMutability":"view"},{"type":"function","name":"isLiquidatable","inputs":[{"name":"user","type":"address","internalType":"address"}],"outputs":[{"name":"","type":"bool","internalType":"bool"}],"stateMutability":"view"},{"type":"function","name":"liquidate","inputs":[{"name":"user","type":"address","internalType":"address"}],"outputs":[],"stateMutability":"nonpayable"},{"type":"function","name":"owner","inputs":[],"outputs":[{"name":"","type":"address","internalType":"address"}],"stateMutability":"view"},{"type":"function","name":"renounceOwnership","inputs":[],"outputs":[],"stateMutability":"nonpayable"},{"type":"function","name":"repayCorn","inputs":[{"name":"repayAmount","type":"uint256","internalType":"uint256"}],"outputs":[],"stateMutability":"nonpayable"},{"type":"function","name":"s_atRiskSince","inputs":[{"name":"","type":"address","internalType":"address"}],"outputs":[{"name":"","type":"uint256","internalType":"uint256"}],"stateMutability":"view"},{"type":"function","name":"s_userBorrowed","inputs":[{"name":"","type":"address","internalType":"address"}],"outputs":[{"name":"","type":"uint256","internalType":"uint256"}],"stateMutability":"view"},{"type":"function","name":"s_userCollateral","inputs":[{"name":"","type":"address","internalType":"address"}],"outputs":[{"name":"","type":"uint256","internalType":"uint256"}],"stateMutability":"view"},{"type":"function","name":"transferOwnership","inputs":[{"name":"newOwner","type":"address","internalType":"address"}],"outputs":[],"stateMutability":"nonpayable"},{"type":"function","name":"updateRiskStatus","inputs":[{"name":"user","type":"address","internalType":"address"}],"outputs":[],"stateMutability":"nonpayable"},{"type":"function","name":"withdrawCollateral","inputs":[{"name":"amount","type":"uint256","internalType":"uint256"}],"outputs":[],"stateMutability":"nonpayable"},{"type":"event","name":"AssetBorrowed","inputs":[{"name":"user","type":"address","indexed":true,"internalType":"address"},{"name":"amount","type":"uint256","indexed":true,"internalType":"uint256"},{"name":"price","type":"uint256","indexed":false,"internalType":"uint256"}],"anonymous":false},{"type":"event","name":"AssetRepaid","inputs":[{"name":"user","type":"address","indexed":true,"internalType":"address"},{"name":"amount","type":"uint256","indexed":true,"internalType":"uint256"},{"name":"price","type":"uint256","indexed":false,"internalType":"uint256"}],"anonymous":false},{"type":"event","name":"CollateralAdded","inputs":[{"name":"user","type":"address","indexed":true,"internalType":"address"},{"name":"amount","type":"uint256","indexed":true,"internalType":"uint256"},{"name":"price","type":"uint256","indexed":false,"internalType":"uint256"}],"anonymous":false},{"type":"event","name":"CollateralWithdrawn","inputs":[{"name":"user","type":"address","indexed":true,"internalType":"address"},{"name":"amount","type":"uint256","indexed":true,"internalType":"uint256"},{"name":"price","type":"uint256","indexed":false,"internalType":"uint256"}],"anonymous":false},{"type":"event","name":"Liquidation","inputs":[{"name":"user","type":"address","indexed":true,"internalType":"address"},{"name":"liquidator","type":"address","indexed":true,"internalType":"address"},{"name":"amountForLiquidator","type":"uint256","indexed":false,"internalType":"uint256"},{"name":"liquidatedUserDebt","type":"uint256","indexed":false,"internalType":"uint256"},{"name":"price","type":"uint256","indexed":false,"internalType":"uint256"}],"anonymous":false},{"type":"event","name":"OwnershipTransferred","inputs":[{"name":"previousOwner","type":"address","indexed":true,"internalType":"address"},{"name":"newOwner","type":"address","indexed":true,"internalType":"address"}],"anonymous":false},{"type":"error","name":"Lending__BorrowingFailed","inputs":[]},{"type":"error","name":"Lending__GracePeriodActive","inputs":[{"name":"protectionEndsAt","type":"uint256","internalType":"uint256"}]},{"type":"error","name":"Lending__GracePeriodNotStarted","inputs":[]},{"type":"error","name":"Lending__InsufficientLiquidatorCorn","inputs":[]},{"type":"error","name":"Lending__InvalidAmount","inputs":[]},{"type":"error","name":"Lending__NotLiquidatable","inputs":[]},{"type":"error","name":"Lending__RepayingFailed","inputs":[]},{"type":"error","name":"Lending__UnsafePositionRatio","inputs":[]},{"type":"error","name":"OwnableInvalidOwner","inputs":[{"name":"owner","type":"address","internalType":"address"}]},{"type":"error","name":"OwnableUnauthorizedAccount","inputs":[{"name":"account","type":"address","internalType":"address"}]}],"bytecode":{"object":"0x608060405234801562000010575f80fd5b50604051620016033803806200160383398101604081905262000033916200016d565b33806200005957604051631e4fbdf760e01b81525f600482015260240160405180910390fd5b620000648162000102565b50600280546001600160a01b038481166001600160a01b03199283161790925560018054928416929091168217905560405163095ea7b360e01b81523060048201525f19602482015263095ea7b3906044016020604051808303815f875af1158015620000d3573d5f803e3d5ffd5b505050506040513d601f19601f82011682018060405250810190620000f99190620001a3565b505050620001cb565b5f80546001600160a01b038381166001600160a01b0319831681178455604051919092169283917f8be0079c531659141344cd1fd0a4f28419497f9722a3daafe3b4186f6b6457e09190a35050565b80516001600160a01b038116811462000168575f80fd5b919050565b5f80604083850312156200017f575f80fd5b6200018a8362000151565b91506200019a6020840162000151565b90509250929050565b5f60208284031215620001b4575f80fd5b81518015158114620001c4575f80fd5b9392505050565b61142a80620001d95f395ff3fe608060405260043610610105575f3560e01c80639210ae6411610092578063d5de45a611610062578063d5de45a6146102be578063d678598a146102dd578063f2fde38b146102fc578063fe6bcd7c1461031b578063fe811df31461033a575f80fd5b80639210ae641461024d5780639e8169991461026c578063aeb465a914610274578063bd00c24d14610293575f80fd5b80632f865568116100d85780632f865568146101b65780636112fe2e146101d557806361a4d4ef146101f4578063715018a6146102135780638da5cb5b14610227575f80fd5b806302c25b5414610109578063042e02cf1461012a5780630835e1451461015e5780632a5f2c231461018b575b5f80fd5b348015610114575f80fd5b506101286101233660046112d7565b610365565b005b348015610135575f80fd5b50610149610144366004611316565b610520565b60405190151581526020015b60405180910390f35b348015610169575f80fd5b5061017d610178366004611316565b61053a565b604051908152602001610155565b348015610196575f80fd5b5061017d6101a5366004611316565b60046020525f908152604090205481565b3480156101c1575f80fd5b506101286101d0366004611316565b6105dd565b3480156101e0575f80fd5b506101286101ef366004611331565b6109a5565b3480156101ff575f80fd5b5061017d61020e366004611331565b610b10565b34801561021e575f80fd5b50610128610bc0565b348015610232575f80fd5b505f546040516001600160a01b039091168152602001610155565b348015610258575f80fd5b5061017d610267366004611316565b610bd3565b610128610ce3565b34801561027f575f80fd5b5061012861028e366004611316565b610de3565b34801561029e575f80fd5b5061017d6102ad366004611316565b60036020525f908152604090205481565b3480156102c9575f80fd5b506101286102d8366004611331565b610def565b3480156102e8575f80fd5b506101286102f7366004611331565b610f59565b348015610307575f80fd5b50610128610316366004611316565b6110d1565b348015610326575f80fd5b5061017d610335366004611316565b61110b565b348015610345575f80fd5b5061017d610354366004611316565b60056020525f908152604090205481565b6001546040516308934a5f60e31b81526001600160a01b038581166004830152602482018590529091169063449a52f8906044016020604051808303815f875af11580156103b5573d5f803e3d5ffd5b505050506040513d601f19601f820116820180604052508101906103d99190611348565b5060405163542e3d5360e11b8152600481018390523360248201526001600160a01b0382811660448301525f919085169063a85c7aa6906064016020604051808303815f875af115801561042f573d5f803e3d5ffd5b505050506040513d601f19601f820116820180604052508101906104539190611348565b9050806104a75760405162461bcd60e51b815260206004820152601a60248201527f4f7065726174696f6e2077617320756e7375636365737366756c00000000000060448201526064015b60405180910390fd5b60015460405163079cc67960e41b8152306004820152602481018590526001600160a01b03909116906379cc6790906044016020604051808303815f875af11580156104f5573d5f803e3d5ffd5b505050506040513d601f19601f820116820180604052508101906105199190611348565b5050505050565b5f670de0b6b3a76400006105338361110b565b1092915050565b6001600160a01b038082165f908152600360209081526040808320546002548251634e8da32560e11b8152925194959194670de0b6b3a7640000949190921692639d1b464a92600480830193928290030181865afa15801561059e573d5f803e3d5ffd5b505050506040513d601f19601f820116820180604052508101906105c29190611367565b6105cc9083611392565b6105d691906113af565b9392505050565b6105e681610520565b6106035760405163175ae04960e11b815260040160405180910390fd5b6001600160a01b0381165f908152600560205260408120549081900361063c5760405163cf18934b60e01b815260040160405180910390fd5b5f61064a62015180836113ce565b9050804210156106705760405163ecca7fcb60e01b81526004810182905260240161049e565b6001600160a01b038381165f908152600460208190526040918290205460015492516370a0823160e01b8152339281019290925292839216906370a0823190602401602060405180830381865afa1580156106cd573d5f803e3d5ffd5b505050506040513d601f19601f820116820180604052508101906106f19190611367565b1015610710576040516327f93fb360e11b815260040160405180910390fd5b6001600160a01b0384165f90815260036020526040812054906107328661053a565b6001546040516323b872dd60e01b8152336004820152306024820152604481018690529192506001600160a01b0316906323b872dd906064016020604051808303815f875af1158015610787573d5f803e3d5ffd5b505050506040513d601f19601f820116820180604052508101906107ab9190611348565b506001600160a01b0386165f908152600460205260408120819055816107d18486611392565b6107db91906113af565b90505f60646107eb600a84611392565b6107f591906113af565b90505f61080282846113ce565b90508481116108115780610813565b845b905061081f81866113e1565b6001600160a01b038a165f90815260036020908152604080832093909355600590528181208190559051339083908381818185875af1925050503d805f8114610883576040519150601f19603f3d011682016040523d82523d5f602084013e610888565b606091505b50509050806108d05760405162461bcd60e51b81526020600482015260146024820152732330b4b632b2103a379039b2b7321022ba3432b960611b604482015260640161049e565b336001600160a01b03168a6001600160a01b03167f5a821a618ddb1a1fd304234a69c9d7f20c129d122fcf35593d13a07192664307848a60025f9054906101000a90046001600160a01b03166001600160a01b0316639d1b464a6040518163ffffffff1660e01b8152600401602060405180830381865afa158015610957573d5f803e3d5ffd5b505050506040513d601f19601f8201168201806040525081019061097b9190611367565b6040805193845260208401929092529082015260600160405180910390a350505050505050505050565b8015806109bf5750335f9081526003602052604090205481115b156109dd5760405163269cf19b60e11b815260040160405180910390fd5b335f908152600360205260408120546109f79083906113e1565b335f8181526003602052604080822084905551929350909184156108fc0291859190818181858888f19350505050158015610a34573d5f803e3d5ffd5b50335f9081526004602052604090205415610a5257610a523361115e565b610a5b33611185565b81336001600160a01b03167fdaed309a628faec6cab72194019e2a1a34e890ca9bf9be99788992dd5469281960025f9054906101000a90046001600160a01b03166001600160a01b0316639d1b464a6040518163ffffffff1660e01b8152600401602060405180830381865afa158015610ad7573d5f803e3d5ffd5b505050506040513d601f19601f82011682018060405250810190610afb9190611367565b60405190815260200160405180910390a35050565b5f815f03610b1f57505f919050565b5f670de0b6b3a764000060025f9054906101000a90046001600160a01b03166001600160a01b0316639d1b464a6040518163ffffffff1660e01b8152600401602060405180830381865afa158015610b79573d5f803e3d5ffd5b505050506040513d601f19601f82011682018060405250810190610b9d9190611367565b610ba79085611392565b610bb191906113af565b905060786105cc826064611392565b610bc8611201565b610bd15f61122d565b565b6001600160a01b0381165f908152600460209081526040808320546003909252822054818303610c04579392505050565b5f610c0e82610b10565b9050808303610c2157505f949350505050565b5f610c2c84836113e1565b90505f60025f9054906101000a90046001600160a01b03166001600160a01b0316639d1b464a6040518163ffffffff1660e01b8152600401602060405180830381865afa158015610c7f573d5f803e3d5ffd5b505050506040513d601f19601f82011682018060405250810190610ca39190611367565b610cb583670de0b6b3a7640000611392565b610cbf91906113af565b90506064610cce607883611392565b610cd891906113af565b979650505050505050565b345f03610d035760405163269cf19b60e11b815260040160405180910390fd5b335f9081526003602052604081208054349290610d219084906113ce565b90915550610d30905033611185565b34336001600160a01b03167f11f8990ac38271f23dea447d5728e9914fca7cea2edda43af6c43c415f8bc30b60025f9054906101000a90046001600160a01b03166001600160a01b0316639d1b464a6040518163ffffffff1660e01b8152600401602060405180830381865afa158015610dac573d5f803e3d5ffd5b505050506040513d601f19601f82011682018060405250810190610dd09190611367565b60405190815260200160405180910390a3565b610dec81611185565b50565b805f03610e0f5760405163269cf19b60e11b815260040160405180910390fd5b335f9081526004602052604081208054839290610e2d9084906113ce565b90915550610e3c90503361115e565b6001546040516323b872dd60e01b8152306004820152336024820152604481018390525f916001600160a01b0316906323b872dd906064016020604051808303815f875af1158015610e90573d5f803e3d5ffd5b505050506040513d601f19601f82011682018060405250810190610eb49190611348565b905080610ed4576040516325b1478b60e21b815260040160405180910390fd5b610edd33611185565b81336001600160a01b03167f6c8250ea4d625c09ee567802242f70b37c9dcfdb10a904563781c1ed7663c7cc60025f9054906101000a90046001600160a01b03166001600160a01b0316639d1b464a6040518163ffffffff1660e01b8152600401602060405180830381865afa158015610ad7573d5f803e3d5ffd5b801580610f735750335f9081526004602052604090205481115b15610f915760405163269cf19b60e11b815260040160405180910390fd5b335f9081526004602052604081208054839290610faf9084906113e1565b90915550506001546040516323b872dd60e01b8152336004820152306024820152604481018390525f916001600160a01b0316906323b872dd906064016020604051808303815f875af1158015611008573d5f803e3d5ffd5b505050506040513d601f19601f8201168201806040525081019061102c9190611348565b90508061104c5760405163c1cf149f60e01b815260040160405180910390fd5b61105533611185565b81336001600160a01b03167fc1afad9537411d7ba4a74e9ee309d18f26f72ee1bfc63647b61e9bca0eec322c60025f9054906101000a90046001600160a01b03166001600160a01b0316639d1b464a6040518163ffffffff1660e01b8152600401602060405180830381865afa158015610ad7573d5f803e3d5ffd5b6110d9611201565b6001600160a01b03811661110257604051631e4fbdf760e01b81525f600482015260240161049e565b610dec8161122d565b6001600160a01b0381165f9081526004602052604081205480820361113357505f1992915050565b5f61113d8461127c565b9050607861114c826064611392565b61115691906113af565b949350505050565b61116781610520565b15610dec57604051632606396760e21b815260040160405180910390fd5b5f61118f8261110b565b6001600160a01b0383165f90815260056020526040902054909150670de0b6b3a764000082106111dd5780156111d8576001600160a01b0383165f908152600560205260408120555b505050565b805f036111d85750506001600160a01b03165f908152600560205260409020429055565b5f546001600160a01b03163314610bd15760405163118cdaa760e01b815233600482015260240161049e565b5f80546001600160a01b038381166001600160a01b0319831681178455604051919092169283917f8be0079c531659141344cd1fd0a4f28419497f9722a3daafe3b4186f6b6457e09190a35050565b6001600160a01b0381165f908152600460205260408120548082036112a457505f1992915050565b5f6112ae8461053a565b90508161114c82670de0b6b3a7640000611392565b6001600160a01b0381168114610dec575f80fd5b5f805f606084860312156112e9575f80fd5b83356112f4816112c3565b925060208401359150604084013561130b816112c3565b809150509250925092565b5f60208284031215611326575f80fd5b81356105d6816112c3565b5f60208284031215611341575f80fd5b5035919050565b5f60208284031215611358575f80fd5b815180151581146105d6575f80fd5b5f60208284031215611377575f80fd5b5051919050565b634e487b7160e01b5f52601160045260245ffd5b80820281158282048414176113a9576113a961137e565b92915050565b5f826113c957634e487b7160e01b5f52601260045260245ffd5b500490565b808201808211156113a9576113a961137e565b818103818111156113a9576113a961137e56fea26469706673582212208ed3ce1cbb74e975c08b3ddf1db3e4a5fa6cfdca331c19763f2db480c61b630c64736f6c63430008140033","linkReferences":{}},"methodIdentifiers":{"addCollateral()":"9e816999","borrowCorn(uint256)":"d5de45a6","calculateCollateralValue(address)":"0835e145","flashLoan(address,uint256,address)":"02c25b54","getHealthFactor(address)":"fe6bcd7c","getMaxBorrowAmount(uint256)":"61a4d4ef","getMaxWithdrawableCollateral(address)":"9210ae64","isLiquidatable(address)":"042e02cf","liquidate(address)":"2f865568","owner()":"8da5cb5b","renounceOwnership()":"715018a6","repayCorn(uint256)":"d678598a","s_atRiskSince(address)":"fe811df3","s_userBorrowed(address)":"2a5f2c23","s_userCollateral(address)":"bd00c24d","transferOwnership(address)":"f2fde38b","updateRiskStatus(address)":"aeb465a9","withdrawCollateral(uint256)":"6112fe2e"},"id":3}