{"abi":[{"type":"constructor","inputs":[],"stateMutability":"nonpayable"},{"type":"function","name":"allowance","inputs":[{"name":"owner","type":"address","internalType":"address"},{"name":"spender","type":"address","internalType":"address"}],"outputs":[{"name":"","type":"uint256","internalType":"uint256"}],"stateMutability":"view"},{"type":"function","name":"approve","inputs":[{"name":"spender","type":"address","internalType":"address"},{"name":"value","type":"uint256","internalType":"uint256"}],"outputs":[{"name":"","type":"bool","internalType":"bool"}],"stateMutability":"nonpayable"},{"type":"function","name":"balanceOf","inputs":[{"name":"account","type":"address","internalType":"address"}],"outputs":[{"name":"","type":"uint256","internalType":"uint256"}],"stateMutability":"view"},{"type":"function","name":"burnFrom","inputs":[{"name":"account","type":"address","internalType":"address"},{"name":"amount","type":"uint256","internalType":"uint256"}],"outputs":[{"name":"","type":"bool","internalType":"bool"}],"stateMutability":"nonpayable"},{"type":"function","name":"decimals","inputs":[],"outputs":[{"name":"","type":"uint8","internalType":"uint8"}],"stateMutability":"view"},{"type":"function","name":"mintTo","inputs":[{"name":"to","type":"address","internalType":"address"},{"name":"amount","type":"uint256","internalType":"uint256"}],"outputs":[{"name":"","type":"bool","internalType":"bool"}],"stateMutability":"nonpayable"},{"type":"function","name":"name","inputs":[],"outputs":[{"name":"","type":"string","internalType":"string"}],"stateMutability":"view"},{"type":"function","name":"owner","inputs":[],"outputs":[{"name":"","type":"address","internalType":"address"}],"stateMutability":"view"},{"type":"function","name":"renounceOwnership","inputs":[],"outputs":[],"stateMutability":"nonpayable"},{"type":"function","name":"symbol","inputs":[],"outputs":[{"name":"","type":"string","internalType":"string"}],"stateMutability":"view"},{"type":"function","name":"totalSupply","inputs":[],"outputs":[{"name":"","type":"uint256","internalType":"uint256"}],"stateMutability":"view"},{"type":"function","name":"transfer","inputs":[{"name":"to","type":"address","internalType":"address"},{"name":"value","type":"uint256","internalType":"uint256"}],"outputs":[{"name":"","type":"bool","internalType":"bool"}],"stateMutability":"nonpayable"},{"type":"function","name":"transferFrom","inputs":[{"name":"from","type":"address","internalType":"address"},{"name":"to","type":"address","internalType":"address"},{"name":"value","type":"uint256","internalType":"uint256"}],"outputs":[{"name":"","type":"bool","internalType":"bool"}],"stateMutability":"nonpayable"},{"type":"function","name":"transferOwnership","inputs":[{"name":"newOwner","type":"address","internalType":"address"}],"outputs":[],"stateMutability":"nonpayable"},{"type":"event","name":"Approval","inputs":[{"name":"owner","type":"address","indexed":true,"internalType":"address"},{"name":"spender","type":"address","indexed":true,"internalType":"address"},{"name":"value","type":"uint256","indexed":false,"internalType":"uint256"}],"anonymous":false},{"type":"event","name":"OwnershipTransferred","inputs":[{"name":"previousOwner","type":"address","indexed":true,"internalType":"address"},{"name":"newOwner","type":"address","indexed":true,"internalType":"address"}],"anonymous":false},{"type":"event","name":"Transfer","inputs":[{"name":"from","type":"address","indexed":true,"internalType":"address"},{"name":"to","type":"address","indexed":true,"internalType":"address"},{"name":"value","type":"uint256","indexed":false,"internalType":"uint256"}],"anonymous":false},{"type":"error","name":"Corn__InsufficientBalance","inputs":[]},{"type":"error","name":"Corn__InvalidAddress","inputs":[]},{"type":"error","name":"Corn__InvalidAmount","inputs":[]},{"type":"error","name":"ERC20InsufficientAllowance","inputs":[{"name":"spender","type":"address","internalType":"address"},{"name":"allowance","type":"uint256","internalType":"uint256"},{"name":"needed","type":"uint256","internalType":"uint256"}]},{"type":"error","name":"ERC20InsufficientBalance","inputs":[{"name":"sender","type":"address","internalType":"address"},{"name":"balance","type":"uint256","internalType":"uint256"},{"name":"needed","type":"uint256","internalType":"uint256"}]},{"type":"error","name":"ERC20InvalidApprover","inputs":[{"name":"approver","type":"address","internalType":"address"}]},{"type":"error","name":"ERC20InvalidReceiver","inputs":[{"name":"receiver","type":"address","internalType":"address"}]},{"type":"error","name":"ERC20InvalidSender","inputs":[{"name":"sender","type":"address","internalType":"address"}]},{"type":"error","name":"ERC20InvalidSpender","inputs":[{"name":"spender","type":"address","internalType":"address"}]},{"type":"error","name":"OwnableInvalidOwner","inputs":[{"name":"owner","type":"address","internalType":"address"}]},{"type":"error","name":"OwnableUnauthorizedAccount","inputs":[{"name":"account","type":"address","internalType":"address"}]}],"bytecode":{"object":"0x608060405234801562000010575f80fd5b5060408051808201825260048082526321a7a92760e11b6020808401829052845180860190955291845290830152339160036200004e838262000191565b5060046200005d828262000191565b5050506001600160a01b0381166200008e57604051631e4fbdf760e01b81525f600482015260240160405180910390fd5b6200009981620000a0565b5062000259565b600580546001600160a01b038381166001600160a01b0319831681179093556040519116919082907f8be0079c531659141344cd1fd0a4f28419497f9722a3daafe3b4186f6b6457e0905f90a35050565b634e487b7160e01b5f52604160045260245ffd5b600181811c908216806200011a57607f821691505b6020821081036200013957634e487b7160e01b5f52602260045260245ffd5b50919050565b601f8211156200018c575f81815260208120601f850160051c81016020861015620001675750805b601f850160051c820191505b81811015620001885782815560010162000173565b5050505b505050565b81516001600160401b03811115620001ad57620001ad620000f1565b620001c581620001be845462000105565b846200013f565b602080601f831160018114620001fb575f8415620001e35750858301515b5f19600386901b1c1916600185901b17855562000188565b5f85815260208120601f198616915b828110156200022b578886015182559484019460019091019084016200020a565b50858210156200024957878501515f19600388901b60f8161c191681555b5050505050600190811b01905550565b6109b480620002675f395ff3fe608060405234801561000f575f80fd5b50600436106100e5575f3560e01c8063715018a61161008857806395d89b411161006357806395d89b41146101d1578063a9059cbb146101d9578063dd62ed3e146101ec578063f2fde38b14610224575f80fd5b8063715018a61461019957806379cc6790146101a35780638da5cb5b146101b6575f80fd5b806323b872dd116100c357806323b872dd1461013c578063313ce5671461014f578063449a52f81461015e57806370a0823114610171575f80fd5b806306fdde03146100e9578063095ea7b31461010757806318160ddd1461012a575b5f80fd5b6100f1610237565b6040516100fe919061080f565b60405180910390f35b61011a610115366004610875565b6102c7565b60405190151581526020016100fe565b6002545b6040519081526020016100fe565b61011a61014a36600461089d565b6102e0565b604051601281526020016100fe565b61011a61016c366004610875565b610303565b61012e61017f3660046108d6565b6001600160a01b03165f9081526020819052604090205490565b6101a1610365565b005b61011a6101b1366004610875565b610378565b6005546040516001600160a01b0390911681526020016100fe565b6100f16103e5565b61011a6101e7366004610875565b6103f4565b61012e6101fa3660046108f6565b6001600160a01b039182165f90815260016020908152604080832093909416825291909152205490565b6101a16102323660046108d6565b610401565b60606003805461024690610927565b80601f016020809104026020016040519081016040528092919081815260200182805461027290610927565b80156102bd5780601f10610294576101008083540402835291602001916102bd565b820191905f5260205f20905b8154815290600101906020018083116102a057829003601f168201915b5050505050905090565b5f336102d4818585610443565b60019150505b92915050565b5f336102ed858285610455565b6102f88585856104d0565b506001949350505050565b5f61030c61052d565b6001600160a01b038316610332576040516207bd9160e81b815260040160405180910390fd5b815f036103525760405163246ada9360e21b815260040160405180910390fd5b61035c838361055a565b50600192915050565b61036d61052d565b6103765f610592565b565b5f61038161052d565b6001600160a01b0383165f90815260208190526040812054908390036103ba5760405163246ada9360e21b815260040160405180910390fd5b828110156103db576040516314c359f360e31b815260040160405180910390fd5b6102d484846105e3565b60606004805461024690610927565b5f336102d48185856104d0565b61040961052d565b6001600160a01b03811661043757604051631e4fbdf760e01b81525f60048201526024015b60405180910390fd5b61044081610592565b50565b6104508383836001610617565b505050565b6001600160a01b038381165f908152600160209081526040808320938616835292905220545f1981146104ca57818110156104bc57604051637dc7a0d960e11b81526001600160a01b0384166004820152602481018290526044810183905260640161042e565b6104ca84848484035f610617565b50505050565b6001600160a01b0383166104f957604051634b637e8f60e11b81525f600482015260240161042e565b6001600160a01b0382166105225760405163ec442f0560e01b81525f600482015260240161042e565b6104508383836106e9565b6005546001600160a01b031633146103765760405163118cdaa760e01b815233600482015260240161042e565b6001600160a01b0382166105835760405163ec442f0560e01b81525f600482015260240161042e565b61058e5f83836106e9565b5050565b600580546001600160a01b038381166001600160a01b0319831681179093556040519116919082907f8be0079c531659141344cd1fd0a4f28419497f9722a3daafe3b4186f6b6457e0905f90a35050565b6001600160a01b03821661060c57604051634b637e8f60e11b81525f600482015260240161042e565b61058e825f836106e9565b6001600160a01b0384166106405760405163e602df0560e01b81525f600482015260240161042e565b6001600160a01b03831661066957604051634a1406b160e11b81525f600482015260240161042e565b6001600160a01b038085165f90815260016020908152604080832093871683529290522082905580156104ca57826001600160a01b0316846001600160a01b03167f8c5be1e5ebec7d5bd14f71427d1e84f3dd0314c0f7b2291e5b200ac8c7c3b925846040516106db91815260200190565b60405180910390a350505050565b6001600160a01b038316610713578060025f828254610708919061095f565b909155506107839050565b6001600160a01b0383165f90815260208190526040902054818110156107655760405163391434e360e21b81526001600160a01b0385166004820152602481018290526044810183905260640161042e565b6001600160a01b0384165f9081526020819052604090209082900390555b6001600160a01b03821661079f576002805482900390556107bd565b6001600160a01b0382165f9081526020819052604090208054820190555b816001600160a01b0316836001600160a01b03167fddf252ad1be2c89b69c2b068fc378daa952ba7f163c4a11628f55a4df523b3ef8360405161080291815260200190565b60405180910390a3505050565b5f6020808352835180828501525f5b8181101561083a5785810183015185820160400152820161081e565b505f604082860101526040601f19601f8301168501019250505092915050565b80356001600160a01b0381168114610870575f80fd5b919050565b5f8060408385031215610886575f80fd5b61088f8361085a565b946020939093013593505050565b5f805f606084860312156108af575f80fd5b6108b88461085a565b92506108c66020850161085a565b9150604084013590509250925092565b5f602082840312156108e6575f80fd5b6108ef8261085a565b9392505050565b5f8060408385031215610907575f80fd5b6109108361085a565b915061091e6020840161085a565b90509250929050565b600181811c9082168061093b57607f821691505b60208210810361095957634e487b7160e01b5f52602260045260245ffd5b50919050565b808201808211156102da57634e487b7160e01b5f52601160045260245ffdfea2646970667358221220ce40ef87be194e5acba15f9c7c2d02963fafb2f7e2708c2d0febcb735be9e4fd64736f6c63430008140033","linkReferences":{}},"methodIdentifiers":{"allowance(address,address)":"dd62ed3e","approve(address,uint256)":"095ea7b3","balanceOf(address)":"70a08231","burnFrom(address,uint256)":"79cc6790","decimals()":"313ce567","mintTo(address,uint256)":"449a52f8","name()":"06fdde03","owner()":"8da5cb5b","renounceOwnership()":"715018a6","symbol()":"95d89b41","totalSupply()":"18160ddd","transfer(address,uint256)":"a9059cbb","transferFrom(address,address,uint256)":"23b872dd","transferOwnership(address)":"f2fde38b"},"id":0}